:100000000C9434000C943E000C943E000C943E0082
:100010000C943E000C943E000C943E000C943E0068
:100020000C943E000C943E000C943E000C943E0058
:100030000C943E000C9440000C943E000C943E0046
:100040000C943E000C943E000C943E000C943E0038
:100050000C943E000C943E000C943E000C943E0028
:100060000C943E000C943E0011241FBECFEFD4E050
:10007000DEBFCDBF0E944B000C9466000C940000C4
:100080001F920F920FB60F9211244A9A0F900FBE33
:100090000F901F901895529A5A9AE1E8F0E08081EB
:1000A00084608083EFE6F0E08081816080837894D3
:1000B00087EF8093640083B7817F83BF83B78160BC
:1000C00083BF889583B78E7F83BFF8CFF894FFCF27
:00000001FF
