S00E00004156523130312E737265639B
S11300000C9434000C943E000C943E000C943E007E
S11300100C943E000C943E000C943E000C943E0064
S11300200C943E000C943E000C943E000C943E0054
S11300300C943E000C9440000C943E000C943E0042
S11300400C943E000C943E000C943E000C943E0034
S11300500C943E000C943E000C943E000C943E0024
S11300600C943E000C943E0011241FBECFEFD4E04C
S1130070DEBFCDBF0E944B000C9465000C940000C1
S11300801F920F920FB60F9211244A9A0F900FBE2F
S11300900F901F901895529A5A9A8091810084600B
S11300A08093810080916F00816080936F007894C9
S11300B087EF8093640083B7817F83BF83B78160B8
S11100C083BF889583B78E7FF8CFF894FFCF67
S9030000FC
